:10000000B700000037F1FFFF9701000017F2FFFF74
:10001000EF0200006FF3DFFFE70300006784C0FF1B
:1000200063001100E39E21FEE34C32FEE3DA42FE60
:10003000E36853FEE3F663FE8384030003152400A4
:1000400083A544000346F5FF83D6E5FF230E76FE25
:10005000239D86FE232C97FE138707009307F0FF4E
:10006000931001001391F1019321120013B2E2FFEA
:100070009342230013D303009353F40113D4044099
:100080009354F54113E5D5FF93753600338606008A
:10009000B306174033972700B327300033B0400032
:1000A000B340510033D16100B351724033E282005A
:0400B000B372930094
:00000001FF
