:100000006F0040086F00C007130181FF23228100A9
:1000100013048100232CA4FE6F00C001832784FFFA
:1000200013871700232CE4FE370700C083C707009F
:100030002300F700832784FF83C70700E39007FEB0
:1000400013000000032441001301810067800000B9
:10005000130141FF23241100232281001304C10056
:100060001305000BEFF05FFA1300000083208100FE
:10007000032441001301C10067800000000000005C
:10008000730020309301C00C130100409302C00C98
:100090001303C00C63F8620023A0020093824200A5
:1000A000E3EC62FEEFF0DFFA6F00000000000000FA
:1000B00056697267756C6520736179730A3C3C20E0
:0B00C00048656C6C6F21203E3E0A007A
:00000001FF
