:100000006F0040086F00C007130101FE232E81001E
:10001000130401022326A4FE6F00C0018327C4FE3F
:10002000138717002326E4FE370700C083C70700A5
:100030002300F7008327C4FE83C70700E39007FE71
:1000400013000000130000000324C101130101028A
:1000500067800000130101FF232611002324810083
:10006000130401011305400BEFF01FFA1300000009
:100070008320C10003248100130101016780000077
:10008000730020309301000D17110000130181B798
:100090009302000D1303000D63F8620023A0020019
:1000A00093824200E3EC62FEEFF0DFFA6F000000A3
:0400B000000000004C
:1000B40056697267756C6520736179730A3C3C20DC
:0B00C40048656C6C6F21203E3E0A0076
:00000001FF
